{
  "_format": "hh-sol-artifact-1",
  "contractName": "MyEpicNFT",
  "sourceName": "contracts/MyEpicNFT.sol",
  "abi": [
    {
      "inputs": [],
      "stateMutability": "nonpayable",
      "type": "constructor"
    },
    {
      "anonymous": false,
      "inputs": [
        {
          "indexed": true,
          "internalType": "address",
          "name": "owner",
          "type": "address"
        },
        {
          "indexed": true,
          "internalType": "address",
          "name": "approved",
          "type": "address"
        },
        {
          "indexed": true,
          "internalType": "uint256",
          "name": "tokenId",
          "type": "uint256"
        }
      ],
      "name": "Approval",
      "type": "event"
    },
    {
      "anonymous": false,
      "inputs": [
        {
          "indexed": true,
          "internalType": "address",
          "name": "owner",
          "type": "address"
        },
        {
          "indexed": true,
          "internalType": "address",
          "name": "operator",
          "type": "address"
        },
        {
          "indexed": false,
          "internalType": "bool",
          "name": "approved",
          "type": "bool"
        }
      ],
      "name": "ApprovalForAll",
      "type": "event"
    },
    {
      "anonymous": false,
      "inputs": [
        {
          "indexed": false,
          "internalType": "address",
          "name": "sender",
          "type": "address"
        },
        {
          "indexed": false,
          "internalType": "uint256",
          "name": "tokenId",
          "type": "uint256"
        }
      ],
      "name": "NewEpicNFTMinted",
      "type": "event"
    },
    {
      "anonymous": false,
      "inputs": [
        {
          "indexed": true,
          "internalType": "address",
          "name": "from",
          "type": "address"
        },
        {
          "indexed": true,
          "internalType": "address",
          "name": "to",
          "type": "address"
        },
        {
          "indexed": true,
          "internalType": "uint256",
          "name": "tokenId",
          "type": "uint256"
        }
      ],
      "name": "Transfer",
      "type": "event"
    },
    {
      "inputs": [
        {
          "internalType": "address",
          "name": "to",
          "type": "address"
        },
        {
          "internalType": "uint256",
          "name": "tokenId",
          "type": "uint256"
        }
      ],
      "name": "approve",
      "outputs": [],
      "stateMutability": "nonpayable",
      "type": "function"
    },
    {
      "inputs": [
        {
          "internalType": "address",
          "name": "owner",
          "type": "address"
        }
      ],
      "name": "balanceOf",
      "outputs": [
        {
          "internalType": "uint256",
          "name": "",
          "type": "uint256"
        }
      ],
      "stateMutability": "view",
      "type": "function"
    },
    {
      "inputs": [
        {
          "internalType": "uint256",
          "name": "tokenId",
          "type": "uint256"
        }
      ],
      "name": "getApproved",
      "outputs": [
        {
          "internalType": "address",
          "name": "",
          "type": "address"
        }
      ],
      "stateMutability": "view",
      "type": "function"
    },
    {
      "inputs": [],
      "name": "getTotalNFTs",
      "outputs": [
        {
          "internalType": "uint256",
          "name": "",
          "type": "uint256"
        }
      ],
      "stateMutability": "view",
      "type": "function"
    },
    {
      "inputs": [
        {
          "internalType": "address",
          "name": "owner",
          "type": "address"
        },
        {
          "internalType": "address",
          "name": "operator",
          "type": "address"
        }
      ],
      "name": "isApprovedForAll",
      "outputs": [
        {
          "internalType": "bool",
          "name": "",
          "type": "bool"
        }
      ],
      "stateMutability": "view",
      "type": "function"
    },
    {
      "inputs": [],
      "name": "makeAnEpicNFT",
      "outputs": [],
      "stateMutability": "nonpayable",
      "type": "function"
    },
    {
      "inputs": [],
      "name": "name",
      "outputs": [
        {
          "internalType": "string",
          "name": "",
          "type": "string"
        }
      ],
      "stateMutability": "view",
      "type": "function"
    },
    {
      "inputs": [
        {
          "internalType": "uint256",
          "name": "tokenId",
          "type": "uint256"
        }
      ],
      "name": "ownerOf",
      "outputs": [
        {
          "internalType": "address",
          "name": "",
          "type": "address"
        }
      ],
      "stateMutability": "view",
      "type": "function"
    },
    {
      "inputs": [
        {
          "internalType": "uint256",
          "name": "tokenId",
          "type": "uint256"
        }
      ],
      "name": "pickRandomColor",
      "outputs": [
        {
          "internalType": "string",
          "name": "",
          "type": "string"
        }
      ],
      "stateMutability": "view",
      "type": "function"
    },
    {
      "inputs": [
        {
          "internalType": "uint256",
          "name": "tokenId",
          "type": "uint256"
        }
      ],
      "name": "pickRandomFirstWord",
      "outputs": [
        {
          "internalType": "string",
          "name": "",
          "type": "string"
        }
      ],
      "stateMutability": "view",
      "type": "function"
    },
    {
      "inputs": [
        {
          "internalType": "uint256",
          "name": "tokenId",
          "type": "uint256"
        }
      ],
      "name": "pickRandomSecondWord",
      "outputs": [
        {
          "internalType": "string",
          "name": "",
          "type": "string"
        }
      ],
      "stateMutability": "view",
      "type": "function"
    },
    {
      "inputs": [
        {
          "internalType": "uint256",
          "name": "tokenId",
          "type": "uint256"
        }
      ],
      "name": "pickRandomThirdWord",
      "outputs": [
        {
          "internalType": "string",
          "name": "",
          "type": "string"
        }
      ],
      "stateMutability": "view",
      "type": "function"
    },
    {
      "inputs": [
        {
          "internalType": "address",
          "name": "from",
          "type": "address"
        },
        {
          "internalType": "address",
          "name": "to",
          "type": "address"
        },
        {
          "internalType": "uint256",
          "name": "tokenId",
          "type": "uint256"
        }
      ],
      "name": "safeTransferFrom",
      "outputs": [],
      "stateMutability": "nonpayable",
      "type": "function"
    },
    {
      "inputs": [
        {
          "internalType": "address",
          "name": "from",
          "type": "address"
        },
        {
          "internalType": "address",
          "name": "to",
          "type": "address"
        },
        {
          "internalType": "uint256",
          "name": "tokenId",
          "type": "uint256"
        },
        {
          "internalType": "bytes",
          "name": "_data",
          "type": "bytes"
        }
      ],
      "name": "safeTransferFrom",
      "outputs": [],
      "stateMutability": "nonpayable",
      "type": "function"
    },
    {
      "inputs": [
        {
          "internalType": "address",
          "name": "operator",
          "type": "address"
        },
        {
          "internalType": "bool",
          "name": "approved",
          "type": "bool"
        }
      ],
      "name": "setApprovalForAll",
      "outputs": [],
      "stateMutability": "nonpayable",
      "type": "function"
    },
    {
      "inputs": [
        {
          "internalType": "bytes4",
          "name": "interfaceId",
          "type": "bytes4"
        }
      ],
      "name": "supportsInterface",
      "outputs": [
        {
          "internalType": "bool",
          "name": "",
          "type": "bool"
        }
      ],
      "stateMutability": "view",
      "type": "function"
    },
    {
      "inputs": [],
      "name": "symbol",
      "outputs": [
        {
          "internalType": "string",
          "name": "",
          "type": "string"
        }
      ],
      "stateMutability": "view",
      "type": "function"
    },
    {
      "inputs": [
        {
          "internalType": "uint256",
          "name": "tokenId",
          "type": "uint256"
        }
      ],
      "name": "tokenURI",
      "outputs": [
        {
          "internalType": "string",
          "name": "",
          "type": "string"
        }
      ],
      "stateMutability": "view",
      "type": "function"
    },
    {
      "inputs": [
        {
          "internalType": "address",
          "name": "from",
          "type": "address"
        },
        {
          "internalType": "address",
          "name": "to",
          "type": "address"
        },
        {
          "internalType": "uint256",
          "name": "tokenId",
          "type": "uint256"
        }
      ],
      "name": "transferFrom",
      "outputs": [],
      "stateMutability": "nonpayable",
      "type": "function"
    }
  ],
  "bytecode": "0x608060405260405180610100016040528060d3815260200162004e0b60d39139600890805190602001906200003692919062000df2565b5060405180608001604052806056815260200162004ede60569139600990805190602001906200006892919062000df2565b50604051806101c001604052806040518060400160405280600a81526020017f426565665769747465640000000000000000000000000000000000000000000081525081526020016040518060400160405280600c81526020017f426565746c65486561646564000000000000000000000000000000000000000081525081526020016040518060400160405280600b81526020017f436c6179427261696e656400000000000000000000000000000000000000000081525081526020016040518060400160405280600881526020017f436f636b6572656400000000000000000000000000000000000000000000000081525081526020016040518060400160405280600781526020017f44616e6b6973680000000000000000000000000000000000000000000000000081525081526020016040518060400160405280600b81526020017f4661744b69646e6579656400000000000000000000000000000000000000000081525081526020016040518060400160405280600a81526020017f476f7262656c6c6965640000000000000000000000000000000000000000000081525081526020016040518060400160405280600781526020017f496c6c427265640000000000000000000000000000000000000000000000000081525081526020016040518060400160405280600c81526020017f4c6f67676572686561646564000000000000000000000000000000000000000081525081526020016040518060400160405280600781526020017f4c756d706973680000000000000000000000000000000000000000000000000081525081526020016040518060400160405280600981526020017f4f6e69696e45796564000000000000000000000000000000000000000000000081525081526020016040518060400160405280600581526020017f5265656b7900000000000000000000000000000000000000000000000000000081525081526020016040518060400160405280600781526020017f52756d704665640000000000000000000000000000000000000000000000000081525081526020016040518060400160405280601481526020017f57656570696e6752697065466174686561646564000000000000000000000000815250815250600a90600e620003bf92919062000e83565b50604051806101e001604052806040518060400160405280600681526020017f4869746c6572000000000000000000000000000000000000000000000000000081525081526020016040518060400160405280600981526020017f4b696d4a6f6e67496c000000000000000000000000000000000000000000000081525081526020016040518060400160405280600681526020017f506f6c506f74000000000000000000000000000000000000000000000000000081525081526020016040518060400160405280600981526020017f4b696d4a6f6e67556e000000000000000000000000000000000000000000000081525081526020016040518060400160405280600d81526020017f53616464616d4875737365696e0000000000000000000000000000000000000081525081526020016040518060400160405280600981526020017f4d7573736f6c696e69000000000000000000000000000000000000000000000081525081526020016040518060400160405280600a81526020017f506f6c6974696369616e0000000000000000000000000000000000000000000081525081526020016040518060400160405280600781526020017f546561636865720000000000000000000000000000000000000000000000000081525081526020016040518060400160405280600681526020017f506172656e74000000000000000000000000000000000000000000000000000081525081526020016040518060400160405280600581526020017f4368696c6400000000000000000000000000000000000000000000000000000081525081526020016040518060400160405280600381526020017f536f6e000000000000000000000000000000000000000000000000000000000081525081526020016040518060400160405280600881526020017f446175676874657200000000000000000000000000000000000000000000000081525081526020016040518060400160405280600681526020017f466174686572000000000000000000000000000000000000000000000000000081525081526020016040518060400160405280600681526020017f4d6f74686572000000000000000000000000000000000000000000000000000081525081526020016040518060400160405280600981526020017f4952532d4167656e740000000000000000000000000000000000000000000000815250815250600b90600f6200075192919062000eea565b50604051806101c001604052806040518060400160405280601581526020017f5769746853797275705572696e6544697365617365000000000000000000000081525081526020016040518060400160405280601381526020017f576974684361745363726174636846657665720000000000000000000000000081525081526020016040518060400160405280601781526020017f5769746842726f6b656e486561727453796e64726f6d6500000000000000000081525081526020016040518060400160405280601181526020017f576974685761746572416c6c676572677900000000000000000000000000000081525081526020016040518060400160405280601481526020017f57697468506967656f6e4567674469736561736500000000000000000000000081525081526020016040518060400160405280601381526020017f576974684e7574486f6f6b53796e64726f6d650000000000000000000000000081525081526020016040518060400160405280601481526020017f57697468416e4f656469707573436f6d706c657800000000000000000000000081525081526020016040518060400160405280601381526020017f576974685374696e6b79466f6f744a756963650000000000000000000000000081525081526020016040518060400160405280601681526020017f57697468546f6f4d75636854696d65546f53706172650000000000000000000081525081526020016040518060400160405280600c81526020017f576974684e6f467574757265000000000000000000000000000000000000000081525081526020016040518060400160405280601281526020017f57697468546f6f4d756368546f6548616972000000000000000000000000000081525081526020016040518060400160405280601181526020017f576974684f6e6c794f6e65467269656e6400000000000000000000000000000081525081526020016040518060400160405280600d81526020017f5769746835304e6970706c65730000000000000000000000000000000000000081525081526020016040518060400160405280600d81526020017f576974684e6f467269656e647300000000000000000000000000000000000000815250815250600c90600e62000aa892919062000e83565b506040518060c001604052806040518060400160405280600381526020017f726564000000000000000000000000000000000000000000000000000000000081525081526020016040518060400160405280600781526020017f233038433241380000000000000000000000000000000000000000000000000081525081526020016040518060400160405280600581526020017f626c61636b00000000000000000000000000000000000000000000000000000081525081526020016040518060400160405280600681526020017f79656c6c6f77000000000000000000000000000000000000000000000000000081525081526020016040518060400160405280600481526020017f626c75650000000000000000000000000000000000000000000000000000000081525081526020016040518060400160405280600581526020017f677265656e000000000000000000000000000000000000000000000000000000815250815250600d90600662000c2692919062000f51565b5034801562000c3457600080fd5b506040518060400160405280600981526020017f5371756172654e465400000000000000000000000000000000000000000000008152506040518060400160405280600681526020017f5351554152450000000000000000000000000000000000000000000000000000815250816000908051906020019062000cb992919062000df2565b50806001908051906020019062000cd292919062000df2565b50505062000d206040518060400160405280601e81526020017f54686973206973206d79204e465420636f6e74726163742e20576f616821000081525062000d2660201b620014a21760201c565b62001172565b62000dc68160405160240162000d3d919062001086565b6040516020818303038152906040527f41304fac000000000000000000000000000000000000000000000000000000007bffffffffffffffffffffffffffffffffffffffffffffffffffffffff19166020820180517bffffffffffffffffffffffffffffffffffffffffffffffffffffffff838183161783525050505062000dc960201b60201c565b50565b60008151905060006a636f6e736f6c652e6c6f679050602083016000808483855afa5050505050565b82805462000e0090620010fc565b90600052602060002090601f01602090048101928262000e24576000855562000e70565b82601f1062000e3f57805160ff191683800117855562000e70565b8280016001018555821562000e70579182015b8281111562000e6f57825182559160200191906001019062000e52565b5b50905062000e7f919062000fb8565b5090565b82805482825590600052602060002090810192821562000ed7579160200282015b8281111562000ed657825182908051906020019062000ec592919062000df2565b509160200191906001019062000ea4565b5b50905062000ee6919062000fd7565b5090565b82805482825590600052602060002090810192821562000f3e579160200282015b8281111562000f3d57825182908051906020019062000f2c92919062000df2565b509160200191906001019062000f0b565b5b50905062000f4d919062000fd7565b5090565b82805482825590600052602060002090810192821562000fa5579160200282015b8281111562000fa457825182908051906020019062000f9392919062000df2565b509160200191906001019062000f72565b5b50905062000fb4919062000fd7565b5090565b5b8082111562000fd357600081600090555060010162000fb9565b5090565b5b8082111562000ffb576000818162000ff1919062000fff565b5060010162000fd8565b5090565b5080546200100d90620010fc565b6000825580601f1062001021575062001042565b601f01602090049060005260206000209081019062001041919062000fb8565b5b50565b60006200105282620010aa565b6200105e8185620010b5565b935062001070818560208601620010c6565b6200107b8162001161565b840191505092915050565b60006020820190508181036000830152620010a2818462001045565b905092915050565b600081519050919050565b600082825260208201905092915050565b60005b83811015620010e6578082015181840152602081019050620010c9565b83811115620010f6576000848401525b50505050565b600060028204905060018216806200111557607f821691505b602082108114156200112c576200112b62001132565b5b50919050565b7f4e487b7100000000000000000000000000000000000000000000000000000000600052602260045260246000fd5b6000601f19601f8301169050919050565b613c8980620011826000396000f3fe608060405234801561001057600080fd5b50600436106101215760003560e01c80636352211e116100ad578063b88d4fde11610071578063b88d4fde14610340578063c575757a1461035c578063c87b56dd1461038c578063de9d132f146103bc578063e985e9c5146103c657610121565b80636352211e1461027657806370a08231146102a657806395d89b41146102d6578063a22cb465146102f4578063b187301f1461031057610121565b806323b872dd116100f457806323b872dd146101c05780632de38d68146101dc57806330bdb3511461020c57806342842e0e1461022a578063514dc8c61461024657610121565b806301ffc9a71461012657806306fdde0314610156578063081812fc14610174578063095ea7b3146101a4575b600080fd5b610140600480360381019061013b91906127d1565b6103f6565b60405161014d91906134af565b60405180910390f35b61015e6104d8565b60405161016b91906134ca565b60405180910390f35b61018e60048036038101906101899190612823565b61056a565b60405161019b919061341f565b60405180910390f35b6101be60048036038101906101b99190612795565b6105ef565b005b6101da60048036038101906101d5919061268f565b610707565b005b6101f660048036038101906101f19190612823565b610767565b60405161020391906134ca565b60405180910390f35b610214610885565b604051610221919061377a565b60405180910390f35b610244600480360381019061023f919061268f565b6108d0565b005b610260600480360381019061025b9190612823565b6108f0565b60405161026d91906134ca565b60405180910390f35b610290600480360381019061028b9190612823565b610a0e565b60405161029d919061341f565b60405180910390f35b6102c060048036038101906102bb919061262a565b610ac0565b6040516102cd919061377a565b60405180910390f35b6102de610b78565b6040516102eb91906134ca565b60405180910390f35b61030e60048036038101906103099190612759565b610c0a565b005b61032a60048036038101906103259190612823565b610d8b565b60405161033791906134ca565b60405180910390f35b61035a600480360381019061035591906126de565b610ea9565b005b61037660048036038101906103719190612823565b610f0b565b60405161038391906134ca565b60405180910390f35b6103a660048036038101906103a19190612823565b611029565b6040516103b391906134ca565b60405180910390f35b6103c461117b565b005b6103e060048036038101906103db9190612653565b61140e565b6040516103ed91906134af565b60405180910390f35b60007f80ac58cd000000000000000000000000000000000000000000000000000000007bffffffffffffffffffffffffffffffffffffffffffffffffffffffff1916827bffffffffffffffffffffffffffffffffffffffffffffffffffffffff191614806104c157507f5b5e139f000000000000000000000000000000000000000000000000000000007bffffffffffffffffffffffffffffffffffffffffffffffffffffffff1916827bffffffffffffffffffffffffffffffffffffffffffffffffffffffff1916145b806104d157506104d08261153b565b5b9050919050565b6060600080546104e790613a19565b80601f016020809104026020016040519081016040528092919081815260200182805461051390613a19565b80156105605780601f1061053557610100808354040283529160200191610560565b820191906000526020600020905b81548152906001019060200180831161054357829003601f168201915b5050505050905090565b6000610575826115a5565b6105b4576040517f08c379a00000000000000000000000000000000000000000000000000000000081526004016105ab906136ba565b60405180910390fd5b6004600083815260200190815260200160002060009054906101000a900473ffffffffffffffffffffffffffffffffffffffff169050919050565b60006105fa82610a0e565b90508073ffffffffffffffffffffffffffffffffffffffff168373ffffffffffffffffffffffffffffffffffffffff16141561066b576040517f08c379a00000000000000000000000000000000000000000000000000000000081526004016106629061371a565b60405180910390fd5b8073ffffffffffffffffffffffffffffffffffffffff1661068a611611565b73ffffffffffffffffffffffffffffffffffffffff1614806106b957506106b8816106b3611611565b61140e565b5b6106f8576040517f08c379a00000000000000000000000000000000000000000000000000000000081526004016106ef906135fa565b60405180910390fd5b6107028383611619565b505050565b610718610712611611565b826116d2565b610757576040517f08c379a000000000000000000000000000000000000000000000000000000000815260040161074e9061373a565b60405180910390fd5b6107628383836117b0565b505050565b6060600061079b61077784611a0c565b60405160200161078791906133b9565b604051602081830303815290604052611bb9565b9050600a80549050816107ae9190613a94565b9050600a81815481106107ea577f4e487b7100000000000000000000000000000000000000000000000000000000600052603260045260246000fd5b9060005260206000200180546107ff90613a19565b80601f016020809104026020016040519081016040528092919081815260200182805461082b90613a19565b80156108785780601f1061084d57610100808354040283529160200191610878565b820191906000526020600020905b81548152906001019060200180831161085b57829003601f168201915b5050505050915050919050565b60006108c86040518060400160405280601681526020017f5765206861766520256420746f74616c204e4654732100000000000000000000815250600e54611bec565b600e54905090565b6108eb83838360405180602001604052806000815250610ea9565b505050565b6060600061092461090084611a0c565b60405160200161091091906133fd565b604051602081830303815290604052611bb9565b9050600d80549050816109379190613a94565b9050600d8181548110610973577f4e487b7100000000000000000000000000000000000000000000000000000000600052603260045260246000fd5b90600052602060002001805461098890613a19565b80601f01602080910402602001604051908101604052809291908181526020018280546109b490613a19565b8015610a015780601f106109d657610100808354040283529160200191610a01565b820191906000526020600020905b8154815290600101906020018083116109e457829003601f168201915b5050505050915050919050565b6000806002600084815260200190815260200160002060009054906101000a900473ffffffffffffffffffffffffffffffffffffffff169050600073ffffffffffffffffffffffffffffffffffffffff168173ffffffffffffffffffffffffffffffffffffffff161415610ab7576040517f08c379a0000000000000000000000000000000000000000000000000000000008152600401610aae9061363a565b60405180910390fd5b80915050919050565b60008073ffffffffffffffffffffffffffffffffffffffff168273ffffffffffffffffffffffffffffffffffffffff161415610b31576040517f08c379a0000000000000000000000000000000000000000000000000000000008152600401610b289061361a565b60405180910390fd5b600360008373ffffffffffffffffffffffffffffffffffffffff1673ffffffffffffffffffffffffffffffffffffffff168152602001908152602001600020549050919050565b606060018054610b8790613a19565b80601f0160208091040260200160405190810160405280929190818152602001828054610bb390613a19565b8015610c005780601f10610bd557610100808354040283529160200191610c00565b820191906000526020600020905b815481529060010190602001808311610be357829003601f168201915b5050505050905090565b610c12611611565b73ffffffffffffffffffffffffffffffffffffffff168273ffffffffffffffffffffffffffffffffffffffff161415610c80576040517f08c379a0000000000000000000000000000000000000000000000000000000008152600401610c77906135ba565b60405180910390fd5b8060056000610c8d611611565b73ffffffffffffffffffffffffffffffffffffffff1673ffffffffffffffffffffffffffffffffffffffff16815260200190815260200160002060008473ffffffffffffffffffffffffffffffffffffffff1673ffffffffffffffffffffffffffffffffffffffff16815260200190815260200160002060006101000a81548160ff0219169083151502179055508173ffffffffffffffffffffffffffffffffffffffff16610d3a611611565b73ffffffffffffffffffffffffffffffffffffffff167f17307eab39ab6107e8899845ad3d59bd9653f200f220920489ca2b5937696c3183604051610d7f91906134af565b60405180910390a35050565b60606000610dbf610d9b84611a0c565b604051602001610dab9190613352565b604051602081830303815290604052611bb9565b9050600b8054905081610dd29190613a94565b9050600b8181548110610e0e577f4e487b7100000000000000000000000000000000000000000000000000000000600052603260045260246000fd5b906000526020600020018054610e2390613a19565b80601f0160208091040260200160405190810160405280929190818152602001828054610e4f90613a19565b8015610e9c5780601f10610e7157610100808354040283529160200191610e9c565b820191906000526020600020905b815481529060010190602001808311610e7f57829003601f168201915b5050505050915050919050565b610eba610eb4611611565b836116d2565b610ef9576040517f08c379a0000000000000000000000000000000000000000000000000000000008152600401610ef09061373a565b60405180910390fd5b610f0584848484611c88565b50505050565b60606000610f3f610f1b84611a0c565b604051602001610f2b9190613330565b604051602081830303815290604052611bb9565b9050600c8054905081610f529190613a94565b9050600c8181548110610f8e577f4e487b7100000000000000000000000000000000000000000000000000000000600052603260045260246000fd5b906000526020600020018054610fa390613a19565b80601f0160208091040260200160405190810160405280929190818152602001828054610fcf90613a19565b801561101c5780601f10610ff15761010080835404028352916020019161101c565b820191906000526020600020905b815481529060010190602001808311610fff57829003601f168201915b5050505050915050919050565b6060611034826115a5565b611073576040517f08c379a000000000000000000000000000000000000000000000000000000000815260040161106a9061369a565b60405180910390fd5b600060066000848152602001908152602001600020805461109390613a19565b80601f01602080910402602001604051908101604052809291908181526020018280546110bf90613a19565b801561110c5780601f106110e15761010080835404028352916020019161110c565b820191906000526020600020905b8154815290600101906020018083116110ef57829003601f168201915b50505050509050600061111d611ce4565b9050600081511415611133578192505050611176565b600082511115611168578082604051602001611150929190613292565b60405160208183030381529060405292505050611176565b61117184611cfb565b925050505b919050565b60006111876007611da2565b90506032600e54106111ce576040517f08c379a00000000000000000000000000000000000000000000000000000000081526004016111c59061375a565b60405180910390fd5b60006111d982610767565b905060006111e683610d8b565b905060006111f384610f0b565b9050600083838360405160200161120c939291906132b6565b60405160208183030381529060405290506000611228866108f0565b9050600060088260098560405160200161124594939291906132e7565b6040516020818303038152906040529050600061128a8461126584611db0565b604051602001611276929190613374565b604051602081830303815290604052611db0565b905060008160405160200161129f91906133db565b60405160208183030381529060405290506112ee6040518060400160405280601581526020017f0a2d2d2d2d2d2d2d2d2d2d2d2d2d2d2d2d2d2d2d2d00000000000000000000008152506114a2565b6112f7816114a2565b6113356040518060400160405280601581526020017f2d2d2d2d2d2d2d2d2d2d2d2d2d2d2d2d2d2d2d2d0a00000000000000000000008152506114a2565b61133f338a611f6e565b6113498982611f8c565b6113536007612000565b611376604051806060016040528060258152602001613bef602591398a33612016565b7febb98688741ffa4c7589bf325de30cf7becb63de567842e1ccdb6cb949fdc82c338a6040516113a7929190613486565b60405180910390a16001896113bc919061384e565b600e819055506114036040518060400160405280600981526020017f746f74616c4e4654730000000000000000000000000000000000000000000000815250600e54611bec565b505050505050505050565b6000600560008473ffffffffffffffffffffffffffffffffffffffff1673ffffffffffffffffffffffffffffffffffffffff16815260200190815260200160002060008373ffffffffffffffffffffffffffffffffffffffff1673ffffffffffffffffffffffffffffffffffffffff16815260200190815260200160002060009054906101000a900460ff16905092915050565b611538816040516024016114b691906134ca565b6040516020818303038152906040527f41304fac000000000000000000000000000000000000000000000000000000007bffffffffffffffffffffffffffffffffffffffffffffffffffffffff19166020820180517bffffffffffffffffffffffffffffffffffffffffffffffffffffffff83818316178352505050506120b5565b50565b60007f01ffc9a7000000000000000000000000000000000000000000000000000000007bffffffffffffffffffffffffffffffffffffffffffffffffffffffff1916827bffffffffffffffffffffffffffffffffffffffffffffffffffffffff1916149050919050565b60008073ffffffffffffffffffffffffffffffffffffffff166002600084815260200190815260200160002060009054906101000a900473ffffffffffffffffffffffffffffffffffffffff1673ffffffffffffffffffffffffffffffffffffffff1614159050919050565b600033905090565b816004600083815260200190815260200160002060006101000a81548173ffffffffffffffffffffffffffffffffffffffff021916908373ffffffffffffffffffffffffffffffffffffffff160217905550808273ffffffffffffffffffffffffffffffffffffffff1661168c83610a0e565b73ffffffffffffffffffffffffffffffffffffffff167f8c5be1e5ebec7d5bd14f71427d1e84f3dd0314c0f7b2291e5b200ac8c7c3b92560405160405180910390a45050565b60006116dd826115a5565b61171c576040517f08c379a0000000000000000000000000000000000000000000000000000000008152600401611713906135da565b60405180910390fd5b600061172783610a0e565b90508073ffffffffffffffffffffffffffffffffffffffff168473ffffffffffffffffffffffffffffffffffffffff16148061179657508373ffffffffffffffffffffffffffffffffffffffff1661177e8461056a565b73ffffffffffffffffffffffffffffffffffffffff16145b806117a757506117a6818561140e565b5b91505092915050565b8273ffffffffffffffffffffffffffffffffffffffff166117d082610a0e565b73ffffffffffffffffffffffffffffffffffffffff1614611826576040517f08c379a000000000000000000000000000000000000000000000000000000000815260040161181d906136da565b60405180910390fd5b600073ffffffffffffffffffffffffffffffffffffffff168273ffffffffffffffffffffffffffffffffffffffff161415611896576040517f08c379a000000000000000000000000000000000000000000000000000000000815260040161188d9061359a565b60405180910390fd5b6118a18383836120de565b6118ac600082611619565b6001600360008573ffffffffffffffffffffffffffffffffffffffff1673ffffffffffffffffffffffffffffffffffffffff16815260200190815260200160002060008282546118fc919061392f565b925050819055506001600360008473ffffffffffffffffffffffffffffffffffffffff1673ffffffffffffffffffffffffffffffffffffffff1681526020019081526020016000206000828254611953919061384e565b92505081905550816002600083815260200190815260200160002060006101000a81548173ffffffffffffffffffffffffffffffffffffffff021916908373ffffffffffffffffffffffffffffffffffffffff160217905550808273ffffffffffffffffffffffffffffffffffffffff168473ffffffffffffffffffffffffffffffffffffffff167fddf252ad1be2c89b69c2b068fc378daa952ba7f163c4a11628f55a4df523b3ef60405160405180910390a4505050565b60606000821415611a54576040518060400160405280600181526020017f30000000000000000000000000000000000000000000000000000000000000008152509050611bb4565b600082905060005b60008214611a86578080611a6f90613a4b565b915050600a82611a7f91906138a4565b9150611a5c565b60008167ffffffffffffffff811115611ac8577f4e487b7100000000000000000000000000000000000000000000000000000000600052604160045260246000fd5b6040519080825280601f01601f191660200182016040528015611afa5781602001600182028036833780820191505090505b5090505b60008514611bad57600182611b13919061392f565b9150600a85611b229190613a94565b6030611b2e919061384e565b60f81b818381518110611b6a577f4e487b7100000000000000000000000000000000000000000000000000000000600052603260045260246000fd5b60200101907effffffffffffffffffffffffffffffffffffffffffffffffffffffffffffff1916908160001a905350600a85611ba691906138a4565b9450611afe565b8093505050505b919050565b600081604051602001611bcc919061327b565b6040516020818303038152906040528051906020012060001c9050919050565b611c848282604051602401611c029291906134ec565b6040516020818303038152906040527f9710a9d0000000000000000000000000000000000000000000000000000000007bffffffffffffffffffffffffffffffffffffffffffffffffffffffff19166020820180517bffffffffffffffffffffffffffffffffffffffffffffffffffffffff83818316178352505050506120b5565b5050565b611c938484846117b0565b611c9f848484846120e3565b611cde576040517f08c379a0000000000000000000000000000000000000000000000000000000008152600401611cd59061355a565b60405180910390fd5b50505050565b606060405180602001604052806000815250905090565b6060611d06826115a5565b611d45576040517f08c379a0000000000000000000000000000000000000000000000000000000008152600401611d3c906136fa565b60405180910390fd5b6000611d4f611ce4565b90506000815111611d6f5760405180602001604052806000815250611d9a565b80611d7984611a0c565b604051602001611d8a929190613292565b6040516020818303038152906040525b915050919050565b600081600001549050919050565b60606000825190506000811415611dd95760405180602001604052806000815250915050611f69565b60006003600283611dea919061384e565b611df491906138a4565b6004611e0091906138d5565b90506000602082611e11919061384e565b67ffffffffffffffff811115611e50577f4e487b7100000000000000000000000000000000000000000000000000000000600052604160045260246000fd5b6040519080825280601f01601f191660200182016040528015611e825781602001600182028036833780820191505090505b5090506000604051806060016040528060408152602001613c14604091399050600181016020830160005b86811015611f265760038101905062ffffff818a015116603f8160121c168401518060081b905060ff603f83600c1c1686015116810190508060081b905060ff603f8360061c1686015116810190508060081b905060ff603f831686015116810190508060e01b90508084526004840193505050611ead565b506003860660018114611f405760028114611f5057611f5b565b613d3d60f01b6002830352611f5b565b603d60f81b60018303525b508484525050819450505050505b919050565b611f8882826040518060200160405280600081525061227a565b5050565b611f95826115a5565b611fd4576040517f08c379a0000000000000000000000000000000000000000000000000000000008152600401611fcb9061365a565b60405180910390fd5b80600660008481526020019081526020016000209080519060200190611ffb9291906124b6565b505050565b6001816000016000828254019250508190555050565b6120b083838360405160240161202e9392919061351c565b6040516020818303038152906040527fe3849f79000000000000000000000000000000000000000000000000000000007bffffffffffffffffffffffffffffffffffffffffffffffffffffffff19166020820180517bffffffffffffffffffffffffffffffffffffffffffffffffffffffff83818316178352505050506120b5565b505050565b60008151905060006a636f6e736f6c652e6c6f679050602083016000808483855afa5050505050565b505050565b60006121048473ffffffffffffffffffffffffffffffffffffffff166122d5565b1561226d578373ffffffffffffffffffffffffffffffffffffffff1663150b7a0261212d611611565b8786866040518563ffffffff1660e01b815260040161214f949392919061343a565b602060405180830381600087803b15801561216957600080fd5b505af192505050801561219a57506040513d601f19601f8201168201806040525081019061219791906127fa565b60015b61221d573d80600081146121ca576040519150601f19603f3d011682016040523d82523d6000602084013e6121cf565b606091505b50600081511415612215576040517f08c379a000000000000000000000000000000000000000000000000000000000815260040161220c9061355a565b60405180910390fd5b805181602001fd5b63150b7a0260e01b7bffffffffffffffffffffffffffffffffffffffffffffffffffffffff1916817bffffffffffffffffffffffffffffffffffffffffffffffffffffffff191614915050612272565b600190505b949350505050565b61228483836122e8565b61229160008484846120e3565b6122d0576040517f08c379a00000000000000000000000000000000000000000000000000000000081526004016122c79061355a565b60405180910390fd5b505050565b600080823b905060008111915050919050565b600073ffffffffffffffffffffffffffffffffffffffff168273ffffffffffffffffffffffffffffffffffffffff161415612358576040517f08c379a000000000000000000000000000000000000000000000000000000000815260040161234f9061367a565b60405180910390fd5b612361816115a5565b156123a1576040517f08c379a00000000000000000000000000000000000000000000000000000000081526004016123989061357a565b60405180910390fd5b6123ad600083836120de565b6001600360008473ffffffffffffffffffffffffffffffffffffffff1673ffffffffffffffffffffffffffffffffffffffff16815260200190815260200160002060008282546123fd919061384e565b92505081905550816002600083815260200190815260200160002060006101000a81548173ffffffffffffffffffffffffffffffffffffffff021916908373ffffffffffffffffffffffffffffffffffffffff160217905550808273ffffffffffffffffffffffffffffffffffffffff16600073ffffffffffffffffffffffffffffffffffffffff167fddf252ad1be2c89b69c2b068fc378daa952ba7f163c4a11628f55a4df523b3ef60405160405180910390a45050565b8280546124c290613a19565b90600052602060002090601f0160209004810192826124e4576000855561252b565b82601f106124fd57805160ff191683800117855561252b565b8280016001018555821561252b579182015b8281111561252a57825182559160200191906001019061250f565b5b509050612538919061253c565b5090565b5b8082111561255557600081600090555060010161253d565b5090565b600061256c612567846137c6565b613795565b90508281526020810184848401111561258457600080fd5b61258f8482856139d7565b509392505050565b6000813590506125a681613b92565b92915050565b6000813590506125bb81613ba9565b92915050565b6000813590506125d081613bc0565b92915050565b6000815190506125e581613bc0565b92915050565b600082601f8301126125fc57600080fd5b813561260c848260208601612559565b91505092915050565b60008135905061262481613bd7565b92915050565b60006020828403121561263c57600080fd5b600061264a84828501612597565b91505092915050565b6000806040838503121561266657600080fd5b600061267485828601612597565b925050602061268585828601612597565b9150509250929050565b6000806000606084860312156126a457600080fd5b60006126b286828701612597565b93505060206126c386828701612597565b92505060406126d486828701612615565b9150509250925092565b600080600080608085870312156126f457600080fd5b600061270287828801612597565b945050602061271387828801612597565b935050604061272487828801612615565b925050606085013567ffffffffffffffff81111561274157600080fd5b61274d878288016125eb565b91505092959194509250565b6000806040838503121561276c57600080fd5b600061277a85828601612597565b925050602061278b858286016125ac565b9150509250929050565b600080604083850312156127a857600080fd5b60006127b685828601612597565b92505060206127c785828601612615565b9150509250929050565b6000602082840312156127e357600080fd5b60006127f1848285016125c1565b91505092915050565b60006020828403121561280c57600080fd5b600061281a848285016125d6565b91505092915050565b60006020828403121561283557600080fd5b600061284384828501612615565b91505092915050565b61285581613963565b82525050565b61286481613975565b82525050565b60006128758261380b565b61287f8185613821565b935061288f8185602086016139e6565b61289881613b81565b840191505092915050565b60006128ae82613816565b6128b88185613832565b93506128c88185602086016139e6565b6128d181613b81565b840191505092915050565b60006128e782613816565b6128f18185613843565b93506129018185602086016139e6565b80840191505092915050565b6000815461291a81613a19565b6129248186613843565b9450600182166000811461293f576001811461295057612983565b60ff19831686528186019350612983565b612959856137f6565b60005b8381101561297b5781548189015260018201915060208101905061295c565b838801955050505b50505092915050565b6000612999603283613832565b91507f4552433732313a207472616e7366657220746f206e6f6e20455243373231526560008301527f63656976657220696d706c656d656e74657200000000000000000000000000006020830152604082019050919050565b60006129ff601c83613832565b91507f4552433732313a20746f6b656e20616c7265616479206d696e746564000000006000830152602082019050919050565b6000612a3f600a83613843565b91507f54484952445f574f5244000000000000000000000000000000000000000000006000830152600a82019050919050565b6000612a7f602483613832565b91507f4552433732313a207472616e7366657220746f20746865207a65726f2061646460008301527f72657373000000000000000000000000000000000000000000000000000000006020830152604082019050919050565b6000612ae5601983613832565b91507f4552433732313a20617070726f766520746f2063616c6c6572000000000000006000830152602082019050919050565b6000612b25606383613843565b91507f222c20226465736372697074696f6e223a20224120686967686c79206163636c60008301527f61696d656420636f6c6c656374696f6e206f6620737175617265732e222c202260208301527f696d616765223a2022646174613a696d6167652f7376672b786d6c3b6261736560408301527f36342c00000000000000000000000000000000000000000000000000000000006060830152606382019050919050565b6000612bd7600b83613843565b91507f5345434f4e445f574f52440000000000000000000000000000000000000000006000830152600b82019050919050565b6000612c17602c83613832565b91507f4552433732313a206f70657261746f7220717565727920666f72206e6f6e657860008301527f697374656e7420746f6b656e00000000000000000000000000000000000000006020830152604082019050919050565b6000612c7d600d83613843565b91507f3c2f746578743e3c2f7376673e000000000000000000000000000000000000006000830152600d82019050919050565b6000612cbd603883613832565b91507f4552433732313a20617070726f76652063616c6c6572206973206e6f74206f7760008301527f6e6572206e6f7220617070726f76656420666f7220616c6c00000000000000006020830152604082019050919050565b6000612d23602a83613832565b91507f4552433732313a2062616c616e636520717565727920666f7220746865207a6560008301527f726f2061646472657373000000000000000000000000000000000000000000006020830152604082019050919050565b6000612d89602983613832565b91507f4552433732313a206f776e657220717565727920666f72206e6f6e657869737460008301527f656e7420746f6b656e00000000000000000000000000000000000000000000006020830152604082019050919050565b6000612def602e83613832565b91507f45524337323155524953746f726167653a2055524920736574206f66206e6f6e60008301527f6578697374656e7420746f6b656e0000000000000000000000000000000000006020830152604082019050919050565b6000612e55600283613843565b91507f227d0000000000000000000000000000000000000000000000000000000000006000830152600282019050919050565b6000612e95602083613832565b91507f4552433732313a206d696e7420746f20746865207a65726f20616464726573736000830152602082019050919050565b6000612ed5603183613832565b91507f45524337323155524953746f726167653a2055524920717565727920666f722060008301527f6e6f6e6578697374656e7420746f6b656e0000000000000000000000000000006020830152604082019050919050565b6000612f3b602c83613832565b91507f4552433732313a20617070726f76656420717565727920666f72206e6f6e657860008301527f697374656e7420746f6b656e00000000000000000000000000000000000000006020830152604082019050919050565b6000612fa1602983613832565b91507f4552433732313a207472616e73666572206f6620746f6b656e2074686174206960008301527f73206e6f74206f776e00000000000000000000000000000000000000000000006020830152604082019050919050565b6000613007602f83613832565b91507f4552433732314d657461646174613a2055524920717565727920666f72206e6f60008301527f6e6578697374656e7420746f6b656e00000000000000000000000000000000006020830152604082019050919050565b600061306d600a83613843565b91507f7b226e616d65223a2022000000000000000000000000000000000000000000006000830152600a82019050919050565b60006130ad602183613832565b91507f4552433732313a20617070726f76616c20746f2063757272656e74206f776e6560008301527f72000000000000000000000000000000000000000000000000000000000000006020830152604082019050919050565b6000613113600a83613843565b91507f46495253545f574f5244000000000000000000000000000000000000000000006000830152600a82019050919050565b6000613153601d83613843565b91507f646174613a6170706c69636174696f6e2f6a736f6e3b6261736536342c0000006000830152601d82019050919050565b6000613193603183613832565b91507f4552433732313a207472616e736665722063616c6c6572206973206e6f74206f60008301527f776e6572206e6f7220617070726f7665640000000000000000000000000000006020830152604082019050919050565b60006131f9601783613832565b91507f546865726520617265206e6f204e465473206c656674210000000000000000006000830152602082019050919050565b6000613239600583613843565b91507f434f4c4f520000000000000000000000000000000000000000000000000000006000830152600582019050919050565b613275816139cd565b82525050565b600061328782846128dc565b915081905092915050565b600061329e82856128dc565b91506132aa82846128dc565b91508190509392505050565b60006132c282866128dc565b91506132ce82856128dc565b91506132da82846128dc565b9150819050949350505050565b60006132f3828761290d565b91506132ff82866128dc565b915061330b828561290d565b915061331782846128dc565b915061332282612c70565b915081905095945050505050565b600061333b82612a32565b915061334782846128dc565b915081905092915050565b600061335d82612bca565b915061336982846128dc565b915081905092915050565b600061337f82613060565b915061338b82856128dc565b915061339682612b18565b91506133a282846128dc565b91506133ad82612e48565b91508190509392505050565b60006133c482613106565b91506133d082846128dc565b915081905092915050565b60006133e682613146565b91506133f282846128dc565b915081905092915050565b60006134088261322c565b915061341482846128dc565b915081905092915050565b6000602082019050613434600083018461284c565b92915050565b600060808201905061344f600083018761284c565b61345c602083018661284c565b613469604083018561326c565b818103606083015261347b818461286a565b905095945050505050565b600060408201905061349b600083018561284c565b6134a8602083018461326c565b9392505050565b60006020820190506134c4600083018461285b565b92915050565b600060208201905081810360008301526134e481846128a3565b905092915050565b6000604082019050818103600083015261350681856128a3565b9050613515602083018461326c565b9392505050565b6000606082019050818103600083015261353681866128a3565b9050613545602083018561326c565b613552604083018461284c565b949350505050565b600060208201905081810360008301526135738161298c565b9050919050565b60006020820190508181036000830152613593816129f2565b9050919050565b600060208201905081810360008301526135b381612a72565b9050919050565b600060208201905081810360008301526135d381612ad8565b9050919050565b600060208201905081810360008301526135f381612c0a565b9050919050565b6000602082019050818103600083015261361381612cb0565b9050919050565b6000602082019050818103600083015261363381612d16565b9050919050565b6000602082019050818103600083015261365381612d7c565b9050919050565b6000602082019050818103600083015261367381612de2565b9050919050565b6000602082019050818103600083015261369381612e88565b9050919050565b600060208201905081810360008301526136b381612ec8565b9050919050565b600060208201905081810360008301526136d381612f2e565b9050919050565b600060208201905081810360008301526136f381612f94565b9050919050565b6000602082019050818103600083015261371381612ffa565b9050919050565b60006020820190508181036000830152613733816130a0565b9050919050565b6000602082019050818103600083015261375381613186565b9050919050565b60006020820190508181036000830152613773816131ec565b9050919050565b600060208201905061378f600083018461326c565b92915050565b6000604051905081810181811067ffffffffffffffff821117156137bc576137bb613b52565b5b8060405250919050565b600067ffffffffffffffff8211156137e1576137e0613b52565b5b601f19601f8301169050602081019050919050565b60008190508160005260206000209050919050565b600081519050919050565b600081519050919050565b600082825260208201905092915050565b600082825260208201905092915050565b600081905092915050565b6000613859826139cd565b9150613864836139cd565b9250827fffffffffffffffffffffffffffffffffffffffffffffffffffffffffffffffff0382111561389957613898613ac5565b5b828201905092915050565b60006138af826139cd565b91506138ba836139cd565b9250826138ca576138c9613af4565b5b828204905092915050565b60006138e0826139cd565b91506138eb836139cd565b9250817fffffffffffffffffffffffffffffffffffffffffffffffffffffffffffffffff048311821515161561392457613923613ac5565b5b828202905092915050565b600061393a826139cd565b9150613945836139cd565b92508282101561395857613957613ac5565b5b828203905092915050565b600061396e826139ad565b9050919050565b60008115159050919050565b60007fffffffff0000000000000000000000000000000000000000000000000000000082169050919050565b600073ffffffffffffffffffffffffffffffffffffffff82169050919050565b6000819050919050565b82818337600083830152505050565b60005b83811015613a045780820151818401526020810190506139e9565b83811115613a13576000848401525b50505050565b60006002820490506001821680613a3157607f821691505b60208210811415613a4557613a44613b23565b5b50919050565b6000613a56826139cd565b91507fffffffffffffffffffffffffffffffffffffffffffffffffffffffffffffffff821415613a8957613a88613ac5565b5b600182019050919050565b6000613a9f826139cd565b9150613aaa836139cd565b925082613aba57613ab9613af4565b5b828206905092915050565b7f4e487b7100000000000000000000000000000000000000000000000000000000600052601160045260246000fd5b7f4e487b7100000000000000000000000000000000000000000000000000000000600052601260045260246000fd5b7f4e487b7100000000000000000000000000000000000000000000000000000000600052602260045260246000fd5b7f4e487b7100000000000000000000000000000000000000000000000000000000600052604160045260246000fd5b6000601f19601f8301169050919050565b613b9b81613963565b8114613ba657600080fd5b50565b613bb281613975565b8114613bbd57600080fd5b50565b613bc981613981565b8114613bd457600080fd5b50565b613be0816139cd565b8114613beb57600080fd5b5056fe416e204e465420772f20494420257320686173206265656e206d696e74656420746f2025734142434445464748494a4b4c4d4e4f505152535455565758595a6162636465666768696a6b6c6d6e6f707172737475767778797a303132333435363738392b2fa264697066735822122062b87d1df7faf2aa380092c1bc85879e4139593bb07c59e3e34d9b18b4d2370764736f6c634300080000333c73766720786d6c6e733d27687474703a2f2f7777772e77332e6f72672f323030302f73766727207072657365727665417370656374526174696f3d27784d696e594d696e206d656574272076696577426f783d273020302033353020333530273e3c7374796c653e2e62617365207b2066696c6c3a2077686974653b20666f6e742d66616d696c793a2073657269663b20666f6e742d73697a653a20323070783b207d3c2f7374796c653e3c726563742077696474683d273130302527206865696768743d2731303025272066696c6c3d27272f3e3c7465787420783d273530252720793d273530252720636c6173733d27626173652720646f6d696e616e742d626173656c696e653d276d6964646c652720746578742d616e63686f723d276d6964646c65273e",
  "linkReferences": {},
  "deployedLinkReferences": {}
}